:100000000C94D3050C940B060C940B060C949A2FAD
:100010000C940B060C940B060C940B060C940B061C
:100020000C940B060C940B060C94C3190C94E21D53
:100030000C94BB280C940B060C940B060C940B062A
:100040000C940B060C940B060C940B060C940B06EC
:100050000C940B060C949C1A0C940B060C940B0637
:100060000C940B060C940B060C940B060C940B06CC
:100070000C940B060C940B060C940B060C940B06BC
:100080000C940B060C940B060C940B060C940B06AC
:100090000C940B060C940B060C940B060C940B069C
:1000A0000C940B060C940B060C940B0620202020BD
:1000B0006162636465666768696A6B6C6D6E6F70B8
:1000C0007172737475767778797A31323334353664
:1000D00037383930524542545F2D3D5B5D5C233BE0
:1000E00027602C2E2F202020300014001A0008003A
:1000F00015001700215204001600070009000A002D
:10010000E0001D001B0006001900050000000000B3
:100110000000E300E1002C002F00130012000C008F
:1001200018001C00340033000F000E000D000B00FF
:100130002D003800370036001000110000000000CC
:100140000000E200E60039002978DF00000000002E
:100150007E007A000100DE0000002900060119017E
:100160002A78DD00000000001B01000000000000F4
:1001700000000000D900D100BD00A9002778CD0003
:100180002378057821782078D000CE00CF00007C3D
:10019000BE00AA002878D30024780278000000006E
:1001A0000000D300DA00D20000DA0281FFD9F1DBCF
:1001B00020A4A62EAF00A0C0D30000A1C8D3000089
:1001C000AED580A81F408D142000556E6465660072
:1001D00041646A757374005261697365004C6F778E
:1001E00065720044656661756C74004C6179657276
:1001F0003A20003A002C206B00780000000000003C
:10020000FEFFFFFFFFFFFFFFFFFFFFFFFFFFFFFFFF
:10021000FFFFFFFFFFFFFFFFFFFFFFFFFFFFFFFFEE
:10022000FFFFFFFFFFFFFF0F0F0F0F0FFFFFFFFF8E
:10023000FFFFFFFFFFFFFFFFFFFFFFFFFE000000CC
:1002400000000000000000000000000000000000AE
:10025000000000000000000000000000000000009E
:10026000000000000000000000000000000000008E
:10027000000000000000000000000000000000007E
:10028000FFFFFFFF8383838383FFFF83838383FFDA
:10029000FF8383838383FFFF83838383FFFF8383C2
:1002A000838383FFFFFFFF8282828282FFFF83833B
:1002B0008383FFFF8383838383FFFFFFFF000000AF
:1002C00000000000000000F8FCFCFC9C9CFCFCF81A
:1002D000F870000000000030787C3C9CFCFCF8F0DA
:1002E0000000000000C0F0F8F83C3C9CBCFCB8B832
:1002F000A00000000000000000000000000000005E
:10030000FFFFFFFF4141414141FFFFFFFFFFFFFFB3
:10031000FF4141414141FFFFFFFFFFFFFFFF41411F
:10032000414141FFFFFFFF4141414141FFFF7F7FCD
:100330007F7FFFFF4141414141FFFFFFFF00000080
:10034000000000000000003F3F3F3F03070F3F3F1A
:100350003E382000000000383C3E3F3F3F3B3938EC
:100360000000000000070F1F3F3C383B3B3F1F1FB2
:100370000F0000000000000000000000000000006E
:100380007FFFFFFFF0F0F0F0F0FFFFFFFFFFFFFF48
:10039000FFF0F0F0F0F0FFFFFFFFFFFFFFFFF0F0D6
:1003A000F0F0F0FFFFFFFFF0F0F0F0F0FFFFF0F0F3
:1003B000F0F0FFFFF0F0F0F0F0FFFFFF7F00000033
:1003C000000000000000000000000000000000002D
:1003D000000000000000000000000000000000001D
:1003E000000000000000000000000000000000000D
:1003F00000000000000000000000000001010101F9
:1004000001010101010202020202020202020303CF
:10041000030303030303040404040404040505059F
:100420000505060606060607070707070808080861
:10043000090909090A0A0A0B0B0B0C0C0C0D0D0D0E
:100440000E0E0E0F0F0F10101111111212131314A4
:1004500014151516161717181819191A1A1B1B1C1C
:100460001D1D1E1E1F202021222223242425262676
:10047000272829292A2B2C2D2D2E2F3031323233AB
:100480003435363738393A3B3C3D3E3F40414243B4
:100490004445464748494A4C4D4E4F505153545598
:1004A0005658595A5B5D5E5F616264656668696B48
:1004B0006C6D6F7072737577787A7B7D7E808283C6
:1004C0008587888A8C8E8F91939596989A9C9EA00A
:1004D000A2A3A5A7A9ABADAFB1B3B5B7BABCBEC017
:1004E000C2C4C6C9CBCDCFD1D4D6D8DBDDDFE2E4E0
:1004F000E7E9EBEEF0F3F5F8FAFDFF00AF00AE052B
:10050000010902A10185020901A1000509190129BA
:1005100008150025019508750181020501093009BA
:10052000311581257F9502750881060938158125C9
:100530007F950175088106050C0A38021581257F13
:10054000950175088106C0C005010980A1018503D8
:1005500019012AB700150126B70095017510810011
:10056000C0050C0901A101850419012AA002150189
:1005700026A002950175108100C005010906A101A0
:100580008506050719E029E715002501950875017D
:1005900081020507190029EF1500250195F0750165
:1005A000810205081901290595057501910295013A
:1005B00075039101C005010906A101050719E0298C
:1005C000E7150025019508750181029501750881DF
:1005D000010507190029FF150026FF00950675087B
:1005E00081000508190129059505750191029501FC
:1005F00075039101C009023B00020100A0FA090441
:100600000000010301010009211101000122400045
:10061000070581030800010904010001030000002F
:1006200009211101000122B6000705820320000103
:1006300012010002000000085346010001000102FF
:1006400000010C0343006F0072006E0065000000A3
:10065000100366006F006F007300740061006E008D
:100660000000040309040000000000003E5B4F5B33
:100670003E003E6B4F6B3E001C3E7C3E1C00183C17
:100680007E3C18001C577D571C001C5E7F5E1C00C2
:1006900000183C180000FFE7C3E7FF00001824180B
:1006A0000000FFE7DBE7FF0030483A060E0026298E
:1006B00079292600407F05050700407F05253F007A
:1006C0005A3CE73C5A007F3E1C1C0800081C1C3E9C
:1006D0007F0014227F2214005F5F005F5F00060925
:1006E0007F017F00006689956A006060606060003D
:1006F00094A2FFA2940008047E04080010207E202B
:10070000100008082A1C0800081C2A0808001E10EF
:10071000101010000C1E0C1E0C0030383E3830003B
:10072000060E3E0E060000000000000000005F0004
:100730000000000700070000147F147F1400242A23
:100740007F2A1200231308646200364956205000A5
:10075000000807030000001C224100000041221C89
:1007600000002A1C7F1C2A0008083E0808000080A0
:1007700070300000080808080800000060600000F1
:100780002010080402003E5149453E0000427F40CF
:1007900000007249494946002141494D330018146F
:1007A000127F10002745454539003C4A4949310030
:1007B000412111090700364949493600464949296E
:1007C0001E0000001400000000403400000000087B
:1007D00014224100141414141400004122140800BF
:1007E0000201590906003E415D594E007C1211126A
:1007F0007C007F49494936003E41414122007F410A
:1008000041413E007F49494941007F0909090100F2
:100810003E41415173007F0808087F0000417F413D
:1008200000002040413F01007F08142241007F402A
:10083000404040007F021C027F007F0408107F00C0
:100840003E4141413E007F09090906003E415121D8
:100850005E007F09192946002649494932000301F3
:100860007F0103003F4040403F001F2040201F0009
:100870003F4038403F0063140814630003047804C9
:1008800003006159494D4300007F4141410002048A
:1008900008102000004141417F00040201020400D1
:1008A00040404040400000030708000020545478B6
:1008B00040007F28444438003844444428003844E9
:1008C00044287F0038545454180000087E09020060
:1008D0001824241C78007F080404780000447D401C
:1008E00000002040403D00007F10284400000041EF
:1008F0007F4000007C04780478007C0804047800C1
:100900003844444438007C1824241800182424183F
:100910007C007C0804040800485454542400040457
:100920003F4424003C4040207C001C2040201C0010
:100930003C4030403C004428102844004C909090AB
:100940007C004464544C4400000836410000000020
:100950007700000000413608000002010204020096
:100960003C2623263C0000000000000000000000A0
:10097000000000000000C0E0F0F8F81800C0F0FC33
:10098000FEFFFFFFFFFFFFFF7E00000000000000F2
:10099000000080C0E0E0E0E0E0E0E0E0C0800000D7
:1009A000000080C0E0E0E0E0E0E0E0E0C0800000C7
:1009B00000E0E0C0C0E0E0E0E00000E0E0C0C0E057
:1009C000E0E0E0E0C0800000000080C0E0E0E0E0A7
:1009D000E0E0E0E0C0800000000000000000000057
:1009E00000000000E0F0F0F0E0ECEEF7F370200023
:1009F0007C7C7C7E007E7E7E7F7F7F000080C0E0EE
:100A00007E5B4F5BFEC00000C000DCD7DEDEDED7C1
:100A1000DC00C0000000000000000000000000003A
:100A2000000000000000000000000000000000F8CE
:100A3000FCFEFFE000FFFFFFFFFFFF80FFFFFFFF67
:100A4000FFFFFFFFFF1F0701000000000000000084
:100A500000FFFFFF8100000000000081C3C3C3004E
:100A600000FFFFFF8100000000000081FFFFFF008A
:100A700000FFFFFF01000000000000FFFFFF01007A
:100A800000000001FFFFFF0000FFFFFF9D1C1C1C7A
:100A90001C1C1C9DDFDFDF000000000000000000C8
:100AA000000000000F1F3F7F7F7F7F7F3F1E0C00F5
:100AB0001F1F1F3F003F3F3F7F7F7F00307B7F78BE
:100AC00030202030787F3B0003000F7F0F0F0F7F17
:100AD0000F00030000000000000000000000000004
:100AE0000000000000000000000000000000000303
:100AF0000F1F3F3F3F3F1F1F3F3F7F7F7F3F3F1FF6
:100B00003F7F7F7F7F7C7878381C0F0000000000DB
:100B10000000010307070707070707070301000095
:100B20000000010307070707070707070301000085
:100B3000000707070000000000000007070700008B
:100B40000000000007070700000001030707070770
:100B50000707070703010000000000000000000075
:100B60000000000000000000000000000000000085
:100B70000000000000000000000000000000000075
:100B80000000000000000000000000000000000065
:100B90000000000000000000000000000000000055
:100BA00000000000000011241FBECFEFDAE0DEBF1E
:100BB000CDBF04B603FE18C08091CD069091CE063D
:100BC000A091CF06B091D0068730904BA740B04B94
:100BD00059F41092CD061092CE061092CF061092C4
:100BE000D006E0E0F8E3099512E0A0E0B1E0E0E42F
:100BF000F4E602C005900D92A037B107D9F726E0C0
:100C0000A0E7B2E001C01D92AD3CB207E1F70E943F
:100C1000E2280C94BA310C9400008F929F92AF920C
:100C2000BF92CF92DF92EF92FF929091440198137E
:100C300005C09091C104903209F44BC080934401E7
:100C400090E29093C104C82ED12CF12CE12C10928B
:100C5000C004C701B6012AE030E040E050E00E9445
:100C60002131605D603331F0C114D104E104F1043D
:100C700009F460E26093BF0460E28AE0C816D10420
:100C8000E104F10490F08AE0882E912CA12CB12C83
:100C9000C701B601A50194010E942131CA01B90121
:100CA000A50194010E942131605D6093BE0420E2A1
:100CB00084E6C816D104E104F10448F0C701B60186
:100CC00024E630E040E050E00E942131205D209396
:100CD000BD048DEB94E0FF90EF90DF90CF90BF903C
:100CE000AF909F908F9008959091B504937061F0AC
:100CF00081110BC094609093B504109243018091D0
:100D0000B40481608093B4040895803110F09C6332
:100D1000F2CF880F880F982BEECF482F2091AC048C
:100D20009091730457E0291302C080E0089530E0E9
:100D3000529FF001539FF00D1124EC58FB4F81811D
:100D4000681306C08081481303C085818111EECFEE
:100D50002F5F3F4F2770E7CFFC01AC014C5F5F4F27
:100D60008FEF91E32191822728E030E087FF09C0CF
:100D7000880F892721503109C9F7E417F50791F742
:100D80000895880FF7CF9091B504937071F0809318
:100D9000B6046093B704493708F048E74093B804B5
:100DA0008091B40481608093B4040895E8EDF0E08C
:100DB00080818E7F80831092E2001092DA00109280
:100DC000E100A0EEB0E08C9181608C9380818F7700
:100DD000808319BCA7EDB0E08C918E7F8C938081CD
:100DE0008F7E80831092440408952091E400309116
:100DF000E50095E6A9012091EC00822F817020FF8B
:100E000006C08091E80080FF06C080E00895209130
:100E1000E80022FD1AC080916904882389F085309A
:100E200089F08091EB0085FD0FC02091E4003091A6
:100E3000E50042175307F9F29150E1F684E0089576
:100E400082E0089583E0089581E0089580916B0425
:100E500087FF13C08091E80082FF06C08091E80000
:100E60008B778093E80004C0809169048111F2CFF0
:100E70000895809169048823D9F38091E80080FF68
:100E8000F8CF8091E8008E77ECCF982F9093E9000F
:100E9000242F762F50E0891731F07091EC002091CB
:100EA000ED005091F00021FD07C09F5F973071F772
:100EB0008093E90081E008953091EB003E7F30930C
:100EC000EB003091ED003D7F3093ED003091EB0071
:100ED00031603093EB007093EC002093ED00509361
:100EE000F0002091EE0027FDE0CF80E00895B0E013
:100EF000A0E0EDE7F7E00C94D430C8EDD0E08881B5
:100F00008F7E8883E7EDF0E080818160808384E0DC
:100F100082BF81E08093440488818E7F888302EEC3
:100F200010E0F80110821092DA0081EEC82ED12C68
:100F3000F601108288818F77888388818068888312
:100F400088818F7D888319BC1092690410926A048D
:100F5000109268041092670490EEE92EF12CF701CC
:100F600080818B7F808388818160888342E060E01C
:100F700080E00E944507F60180818E7F8083F80122
:100F8000808181608083808188608083F701808197
:100F90008E7F8083888180618883CDB7DEB7E8E06B
:100FA0000C94F030FC0180917104909172048617CA
:100FB0009707A0F06115710529F49091E8009E77DC
:100FC0009093E80090E06115710551F4911108C00B
:100FD0008091E80082FF34C080E00895BC01F2CF28
:100FE000809169048823C1F18530C1F18091E800C6
:100FF00083FD30C08091E80082FDEACF8091E80057
:1010000080FFE1CF8091F3002091F200382F61152D
:10101000710519F02830310558F091E0283031057C
:1010200009F090E02091E8002E772093E800CBCFE4
:1010300081918093F100615071092F5F3F4FE7CF9D
:1010400080916904882341F0853041F08091E80067
:1010500083FFBECF81E0089582E0089583E0089584
:101060008091460408952FB7F89460913E047091E2
:101070003F0480914004909141042FBF0895209136
:101080003F012223C9F02091420427FF15C0E62F1B
:10109000E695E695E695EE31D8F4E80FF92FF11DC7
:1010A000677021E030E001C0220F6A95EAF72095D1
:1010B0008281282322830895FC013296089621918B
:1010C000621303C0DF0111971C92E817F907B9F703
:1010D000089520913F012223C1F02091420427FF6F
:1010E00014C0E62FE695E695E695EE31F8F4E80FA4
:1010F000F92FF11D677021E030E001C0220F6A95E1
:10110000EAF78281822B82830895FC0132962FEFC9
:1011100030E04191641751F02F3F19F4411101C0A3
:10112000232F3F5F3630A9F72F3F09F40895820F30
:10113000911D27FD9A95FC0162830895A3E0B0E01C
:10114000E4EAF8E00C94DA3020913B0430913C045E
:1011500028173907A1F090933C0480933B04E09159
:101160003904F0913A04309751F024E029839B83AD
:101170008A830680F781E02DCE010196099523969A
:10118000E2E00C94F630A3E0B0E0E9ECF8E00C9477
:10119000DA30209137043091380428173907A1F04C
:1011A0009093380480933704E0913904F0913A0425
:1011B000309751F023E029839B838A830680F7814F
:1011C000E02DCE01019609952396E2E00C94F630CD
:1011D000FA01811101C0FB0109950895E5EBF4E0E6
:1011E000248130E1231B08F420E024838091B4049F
:1011F00081608093B4040895E5EBF4E0248130E14C
:10120000230F08F42FEF24838091B404816080932E
:10121000B4040895E5EBF4E0438120E1421B08F4B7
:1012200040E08181628190E00E94C3060895E5EB71
:10123000F4E0438120E1420F08F44FEF81816281A5
:1012400090E00E94C3060895E5EBF4E0628120E19E
:10125000621B08F460E08181438190E00E94C30634
:101260000895E5EBF4E0628120E1620F08F46FEF8E
:101270008181438190E00E94C3060895E5EBF4E08C
:101280008181438162818850990B0E94C306089531
:10129000E5EBF4E0818190E04381628108960E9451
:1012A000C30608958091B50486958695815009F40A
:1012B0008FE00E94740608958091B5048695869506
:1012C0008F5F803108F081E00E9474060895322F0C
:1012D00050E0FA01EE0FFF1FE356FE4F91A9905226
:1012E00097FD9195440F551FFA01E353FE4F20815E
:1012F000231B330B290F311D97FD3A95620F08957B
:10130000622F0895E42FF0E0EE0FFF1FE353FE4F2E
:10131000408134EE439F412D1124E82FF0E050E04E
:10132000445E5F4FDA01A21BB1099D01B7FF03C004
:1013300031952195310993E0220F331F9A95E1F7FA
:10134000AF01421B530B9A0157FD20E0582F259FF8
:10135000212D1124822F0895E42FF0E0EE0FFF1FBE
:10136000E353FE4F408134EE439F412D1124E72F7C
:10137000F0E050E0445E5F4FDA01A21BB1099D012D
:10138000B7FF03C031952195310993E0220F331F38
:101390009A95E1F7AF01421B530B9A0157FD20E0EC
:1013A000279F212D1124722F08950E94A4110895C2
:1013B000FF920F931F93CF93DF93182F062FF42ED6
:1013C000D0E0C0E02F2D402F612FCE010E94D50923
:1013D0002196C633D105B1F7CDB7DEB7E5E00C9461
:1013E000F330FC019B01009729F480E077FF2BC0CC
:1013F00080E80895AC0197FF04C044275527481B97
:10140000590BB901640F751F37FD10C0241B350B34
:10141000C901A5E0880F991FAA95E1F70E940D3137
:1014200080E2861BF7FF0FC081950895CB0165E030
:10143000880F991F6A95E1F7BA01621B730B0E942E
:101440000D3180E6EECF0895EF920F93CF93DF93A7
:10145000D72FC82FC9010E19BA010E94F109602FB8
:10146000681B7D2F8C2FDF91CF910F91EF90089506
:10147000EF920F931F93CF93DF93D62FC72F182F81
:10148000C9010E19010FBA010E94F109081B202F92
:10149000219F212D1124822F6D2F7C2FDF91CF9141
:1014A0001F910F91EF900895EF920F931F93CF9399
:1014B000DF93D62F172FC82FC9010E19070FBA01B6
:1014C0000E94F109702F781B719F712D11246D2FCF
:1014D0008C2FDF91CF911F910F91EF900895E82FFE
:1014E00086FDE0952E2F2F7086FD2F5FE695E69501
:1014F000E695E670F0E0EB56FE4F9181929F902DBD
:10150000212D112492959F702295207F922B20816E
:10151000920F87FD919580E8890F089540913B01D6
:1015200050913C0125E038E0429FC001439F900D5F
:10153000529F900D1124875E994C90933C018093AB
:101540003B01890F089530E020E0869F212D969F72
:10155000200D311D1124C9010895AF92BF92CF9281
:10156000DF92FF920F931F93CF93DF93362F472F76
:10157000E82FF0E0E550FC4F71110FC0E4918E2F81
:101580002E2F6E2F722FDF91CF911F910F91FF9011
:10159000DF90CF90BF90AF900895C72FD0E02491F7
:1015A000F22E022F10E056E0659FC0011124EFEFEC
:1015B000F0E0BF010E94B630832F90E0880F991FA2
:1015C00035E5369FD001379FB00D11248A1B9B0B48
:1015D000982F990F980F6F01CC1ADD0AC09ED00189
:1015E000C19EB00DD09EB00D11248B2F499FA0013C
:1015F0001124452F55276F01C41AD50AC09EA0019A
:10160000C19E500DD09E500D11245F01A91AB10842
:10161000AC9E6001AD9ED00CBC9ED00C1124CD2C94
:10162000DD24EC19FD09E09FE001E19FD00DF09F62
:10163000D00D1124ED2F62307105A1F050F4611529
:10164000710509F49ECF6130710581F0EB2F852F74
:1016500098CF6430710569F080F06630710509F447
:1016600090CFF4CFE22F2B2F8D2F8BCFE22F252F72
:1016700088CFEB2F822F2D2F84CF2B2F8F2DE52F6F
:1016800080CFB0E0A0E0E7E4FBE00C94D5308C0123
:10169000FC01E75CFD4F8081682349F1D090B704DD
:1016A000D091B804C091B604EC2EF12C0E948E0AA1
:1016B000282FC7018C549F4F68E671E00E940D31BE
:1016C0008E199F0997FD0396959587959595879512
:1016D00023706C2F289F600D11247D2D8D2F0E946B
:1016E000AD0A462F282F672FC8010E94D509CDB714
:1016F000DEB7E7E00C94F1308091640380FD16C002
:1017000081FD16C082FD16C0809163038823A1F07D
:10171000883280F428E0829FC001112468E270E0E2
:101720000E940D31862F672B39F0089582E00895CD
:1017300084E0089588E0089581E00895809164032D
:1017400080FD14C081FD14C082FD16C0809162032B
:10175000882381F08E3180F420E5829FC00111241E
:101760006EE170E00E940D31862F089584E10895A6
:1017700088E2089588E0089580E5089580E008955E
:10178000F894E82FE295EF70F0E031A1282F2F7048
:1017900081E090E001C0880F2A95EAF7982F909594
:1017A000932391A392A1892B82A378940895909179
:1017B000420492FF06C0282F28712830F9F4877F51
:1017C000846093FF06C0282F28712831F1F4877EAA
:1017D00084612091430420FF06C0382F38713830CF
:1017E000D9F4877F816021FF06C0282F2871283116
:1017F000D1F4877E816194FD877E0895282F24711E
:101800002430F9F68B7F8860DCCF282F24712431B7
:1018100001F78B7E8861DDCF382F3171313019F7B8
:101820008E7F8860E0CF282F2171213121F78E7EB5
:101830008861E1CF82389105B9F1B0F48133910527
:1018400009F47DC048F48932910509F46DC08A32EB
:10185000910509F47BC008958533910509F45FC0B3
:101860008933910509F10895833E9105D9F138F442
:10187000803E910529F1823E910579F10895863ED9
:101880009105D9F1873E910509F43EC0843E91054A
:1018900041F52091430421FF24C08091420484FD3E
:1018A00019C087EE90E0089520914204237009F05A
:1018B0005AC02091430423FF14C089E290E00895A8
:1018C0002091420420FD38C03091430430FF09C00C
:1018D00024FF43C090E080E008952091420422FD5F
:1018E000F7CF08952091420422FD3AC0309143047D
:1018F00030FD39C024FFF5CFEDCF2091420423FF06
:10190000F0CF24FDE7CFCDCF2091420423FD2EC0A0
:101910003091430431FFEECF84EE90E008952091A2
:10192000420425FFDECFC9CF2091420425FD21C00E
:101930002091430423FFD5CF89E390E0D2CF2091BB
:10194000420426FFCECF8AE290E00895209142041F
:1019500026FFC7CF81E390E0089583EE90E00895DD
:1019600082EE90E0089580EE90E0089586EE90E09B
:10197000089585E390E00895972F7830B8F46630A5
:10198000A8F48230B0F470E026E0929F600D711DE3
:101990001124FB0190E3899FE00DF11D1124EE0F4E
:1019A000FF1FE851FF4F85919491089580E090E0EA
:1019B000089581E0FCCF1F93CF93DF930E941A0C10
:1019C000EC01C11580E5D807F0F5C11580E4D80712
:1019D00008F09CC0C03ED10520F5CD3CD10508F0F3
:1019E00082C0C83AD10578F4C53AD10508F073C071
:1019F000C130D10519F1209709F1C430D105F0F4B7
:101A0000D0E0C0E01BC0C33CD105D0F7C85AD0E03D
:101A1000CC0FDD1FC55BDE4F0990D881C02DD4648B
:101A20000DC0C11580E2D80708F0D1C0C11581E012
:101A3000D80708F05AC0C83ED10510F7CE01DF9193
:101A4000CF911F910895C03682E5D80718F5C034AC
:101A500082E5D80708F06BC0C03282E5D80708F0ED
:101A60005FC0C11582E5D80708F497C02C2F2695D2
:101A7000269580E2289F900111248C2F8370C1E06D
:101A8000D0E002C0CC0FDD1F8A95E2F7C22BD32B2A
:101A9000DD68D4CFC03A82E5D80760F4C03882E56B
:101AA000D80708F459C0CF71D0E0DC2FCC27C46F21
:101AB000D06AC4CFC03C82E5D80708F462C0C03EFB
:101AC00082E5D80708F09CCFDC2FCC27CC27DF712C
:101AD000C06FD06AB3CFC55AD0E0C85BDE4FC881B3
:101AE000D0E0D064ABCFD065A9CF8D2F0E94D70BAB
:101AF000182FCE0199270E941A0CC12FD0E0DC2F9D
:101B0000CC27CC27DF71C82BD92B98CFCE019927B2
:101B10000E941A0CCC27DF70C82BD92BD06A8ECF2D
:101B2000CF71D0E0DC2FCC27C16FD06A87CF2C2FAC
:101B300026952695277080E2289F900111248C2FEE
:101B40008370C1E0D0E002C0CC0FDD1F8A95E2F7C0
:101B5000C22BD32BDC6872CF2C2F269526952770AD
:101B600080E2289F900111248C2F8370C1E0D0E087
:101B700002C0CC0FDD1F8A95E2F7C22BD32BDA68A7
:101B80005DCF8C2F8F710E94D70BC82FD0E0DC2F38
:101B9000CC27CC27DF71D06251CF8C2F8F710E9460
:101BA000D70B55E0D695C7955A95E1F7CF70D0E0A1
:101BB000DC2FCC27282F30E084FF05C044E0220F23
:101BC000331F4A95E1F7C22BD32BD06937CF8D2F26
:101BD0008F710E94D70B182FCE0199270E941A0CE3
:101BE000C12FD0E0DC2FCC27CC27DF71C82BD92B1D
:101BF000D2CF80959091D60298239093D6020895E3
:101C00008091AC0490917304981301C008958F5F84
:101C10008770FACFB0E0A0E0E0E1FEE00C94D330B2
:101C20007C0100913003109131038091D702909193
:101C3000D802082B192BCFE0D0E0CC24C394D12CB0
:101C4000BC2EC6010C2E02C0880F991F0A94E2F721
:101C500080239123892B49F4219790F7B12C8B2D68
:101C6000CDB7DEB7E9E00C94EF30B7018C2F0E94BE
:101C7000BC0C0E94DB0C019779F3F1CFCF93DF937B
:101C8000EC010E940A0EBE010E94BC0C0E94DB0CFB
:101C9000DF91CF910895983078F5863068F5E82F78
:101CA000F0E086E0989FE00DF11D11249E2F9770C3
:101CB00083E0F695E7958A95E1F7EE0FFF1FEE0FAB
:101CC000FF1FEC56FD4F50E040E080E0219130E0F6
:101CD000092E02C0369527950A94E2F72170332722
:101CE000042E01C0220F0A94EAF7822B4F5F5F4F48
:101CF0004430510559F7089580E00895983098F5DB
:101D0000863088F5E82FF0E086E0989FE00DF11D21
:101D100011248E2F877041E001C0440F8A95EAF7A5
:101D200083E0F695E7958A95E1F7EE0FFF1FEE0F3A
:101D3000FF1FEC56FD4F30E020E070E05191DF01D5
:101D40001197CB01022E02C0969587950A94E2F76F
:101D5000817081958527842385278C932F5F3F4F42
:101D60002430310559F7089590933103809330035F
:101D7000089521E030E002C0220F331F8A95E2F778
:101D800020953095809130039091310382239323E5
:101D90000E94B40E08959091B30280958923809398
:101DA000B302282F277069F4891759F090914304E2
:101DB00092FF07C08695869586950E94B90E10926F
:101DC000B302089521E030E002C0220F331F8A954C
:101DD000E2F78091300390913103822B932B0E9484
:101DE000B40E08959093D8028093D7020895FC0111
:101DF00024812223C1F0808191810E943E0E929520
:101E00009F70963091F058F4925F9F70923058F422
:101E1000803F19F030F4883E30F481E008959A5FF5
:101E2000F4CF843FD1F380E00895883EB0F3813F42
:101E3000D1F7F3CFA6E0B0E0E0E2FFE00C94D930B8
:101E400049835A8349815A819923A1F0222391F031
:101E5000CA010E940A0E182F682F89819A810E9458
:101E60007E0E69817A81812F0E94BC0C2696E3E068
:101E70000C94F530CA010E944B0E182FF2CFCF936D
:101E8000DF93682F81E06A3019F06D3031F480E023
:101E90000E94CD0FDF91CF9108958091CB06909154
:101EA000CC0626E0FC01A5ECB6E001900D922A9547
:101EB000E1F7603E08F458C026E0FC0111922A9533
:101EC000E9F7C091CB06D091CC0646E050E0BE01C8
:101ED00085EC96E00E9452319E01255C3440892BAE
:101EE00041F1C90145E0969587954A95E1F741E0B2
:101EF00050E0BA0102C0660F771F8A95E2F7CB0166
:101F00006091C3047091C404862B972BB9016B5F59
:101F10007F4FE5E076956795EA95E1F702C0440FBB
:101F2000551F6A95E2F7842B952B9093C4048093F8
:101F3000C3042A5F3F4F4091C204642F70E0C9017F
:101F40000E94B630481B463010F4240F311D211575
:101F500072E0370710F030E020E02B533B4F309316
:101F6000CC062093CB0696CFF6E06F9FB0011124EC
:101F70006A59794F46E050E00E944931A2CFCF9391
:101F8000DF93EC01FE018491811103C0DF91CF91B9
:101F900008950E943F0F2196F5CFCF93382FE091FF
:101FA000CB06F091CC06E55CF4402091C204622F90
:101FB00070E0CF010E94B630281B822F332361F0DE
:101FC00066E00E940131C82FC15010F4CF910895EE
:101FD00080E20E943F0FF8CF9F01280F311D21158D
:101FE000324018F080E0F0E0E0E08E0F9F2F911D6E
:101FF0008B539B4F9093CC068093CB06E7CF0E94E8
:10200000BF0F81E00E94CD0F08958091D60290917C
:10201000D502892B809372029091D4029923A1F06A
:10202000892B8093720280913F018823E1F1809196
:10203000420487FF38C08EE1E4E7F2E090E081508F
:10204000A0F591111092D40240E250E064EB72E0EE
:1020500082E792E00E945231892B21F180E2E2E78F
:10206000F2E0A4EBB2E001900D928A95E1F7E091E5
:102070003904F0913A043097A9F080913F01882308
:1020800059F08091420487FF07C0809172028093CB
:10209000730286E0809372020280F381E02D82E772
:1020A00092E00995089586E0C7CF2191222339F265
:1020B0009F5FC5CF882321F00E94F90D0E94051073
:1020C0000895882339F09091D602982B9093D602E8
:1020D0000E94051008950F931F93CF93DF93EC0197
:1020E000FC0101900020E9F78F0101501109C01790
:1020F000D10728F0DF91CF911F910F910895899119
:102100000E943F0FF4CF0F931F93CF93DF938B0168
:10211000EA0190916904943061F58093E9008FEFB2
:102120009091E800815095FD06C095ED9A95F1F7E4
:1021300000008111F5CF8091E80085FF1AC00E9450
:10214000F506811111C08091E80085FD06C08091DF
:10215000E8008E778093E800F2CFF80181918F013B
:102160008093F100219779F78091E8008E77809332
:10217000E800DF91CF911F910F91089543E050E067
:10218000BC0182E00E948310089546E050E0BC014B
:1021900082E00E9483100895CF93DF93EC01809139
:1021A0003F01811111C048E050E0BE0181E00E9472
:1021B000831080E2FE01A7E4B4E001900D928A95BD
:1021C000E1F7DF91CF9108958091420487FF05C028
:1021D00040E282E050E0BE01EACF48E081E0FACF81
:1021E00081E08093E00080E28093D8001092C900E3
:1021F0008FE19EE40197F1F700C0000087E090EBCB
:10220000DC018093CD069093CE06A093CF06B093C9
:10221000D00688E19CE00FB6F894A8958093600002
:102220000FBE90936000FFCF539A3BB1377F2BB125
:1022300028604FB7F8948FE893E0FC015191CF01EB
:1022400068E02BB9000000C057FF3BB9550F0000F4
:1022500000C000C000C03BB900C06A9591F7F4E02F
:1022600081339F0751F74FBF8FE594E00197F1F756
:1022700000C000000895B0E0A0E0E1E4F1E10C94BA
:10228000D2307C015B016A018091100301E010E013
:102290008A3010F40AE010E0C1E0D0E0B501C701D7
:1022A000F6010995811104C021960C171D072CF425
:1022B000CDB7DEB7EAE00C94EE30CC9F9001CD9F15
:1022C000300D300D112490E080E045E34A95F1F7A0
:1022D0000000019682179307C1F7E0CF8091E502D5
:1022E000811119C088EC90E02091E30027FD10C017
:1022F000EFE3FCE93197F1F700C000000197A1F787
:1023000082E08093E5020E94D6061092690403C021
:1023100081E08093E50281E09091E502913011F037
:1023200080E0089508950E946E11882359F0E0918D
:102330003904F0913A04309729F00190F081E02DB2
:102340000995089580E00895FF920F931F93CF930E
:10235000DF93EC01F62E042F122F0E946E118111D3
:102360000FC0CB31D1057CF06B97FE01EE0FFF1F44
:10237000EC0FFD1FE157FC4FF1820083128303C075
:10238000CB31D10594F3CDB7DEB7E5E00C94F33053
:10239000CF93C82F0E946E11882329F081E0CB31A2
:1023A00028F080E003C081E0C633D8F7CF910895CC
:1023B000B0E0A0E0EEEDF1E10C94D2306C01C09100
:1023C00040018BE0C89FC02D11241BE01C0F173368
:1023D00008F016E30E946E11882319F01C3108F0F2
:1023E0001BE10E946E11811103C0CB3108F4CBE1D7
:1023F0006091B90466958091AD049091AE040E94FD
:10240000A30AF82ED0E0CE01880F991F9C01235615
:102410003E4F5901C11740F0812F0E94C811CDB71E
:10242000DEB7EAE00C94EE30FE01E75CFD4F808100
:1024300090914101892309F451C0D501D0964C9166
:10244000D0974057550BD1962C912052330B449F77
:10245000B001459F700D700D1124229FC001239F74
:10246000900D900D1124860F971F082F8230910533
:1024700020F1EFEF813EBEE19B0738F4FC01B5E0AF
:10248000F695E795BA95E1F7E85FF1E0AF2FAE0F6B
:10249000BB27BB1FBD0175956795062F669FD001B1
:1024A000679FB00DB00D11248A179B07E0F4EFEF82
:1024B000E60FEF1758F70FEF0F0F6091B60470910A
:1024C000B7048091B804EF2CF60109950E94AD0A7B
:1024D000462F282F672FCE010E94D5092196F2E0C2
:1024E000AF0EB11C97CF6F3F41F3F1E0F60FE1CF94
:1024F000EF92FF920F931F93CF93DF937C01C091D4
:1025000040018BE0C89FC02D11241BE01C0F173326
:1025100008F016E30E946E11882319F01C3108F0B0
:102520001BE10E946E11811103C0CB3108F4CBE195
:102530006091B9046695669521E0620F08F46FEF2B
:102540008091AD049091AE040E94A30A082FD0E0C0
:10255000C11740F0812F0E94C811CDB7DEB7E6E069
:102560000C94F230FE01E75CFD4F808190914101B7
:10257000892391F06091B6047091B7048091B804FA
:10258000202F4C2FF70109950E94AD0A462F282FC6
:10259000672FCE010E94D5092196DACF0F931F93A2
:1025A0000E946E11882329F00E9433081F910F9119
:1025B00008950E9433080091110310911203209195
:1025C000130330911403600F711F821F931FEECF0E
:1025D000B0E0A0E0EEEEF2E10C94D4306C017B01AF
:1025E00064E670E088E70E94142E8C01E601EC0C92
:1025F000FD1C17FD0BC0FE01849164E670E00E9493
:10260000802E8C012196CE15DF0599F70E94F62EBB
:1026100081E00115110509F080E0CDB7DEB7E8E0F3
:102620000C94F0308091350490913604911103C0E0
:1026300091E089270895882369F062E070E08DEFCA
:1026400094E00E94E812811103C08091350408953E
:102650001092350480913504EBCFCF93C0913504AF
:10266000809136048823D1F00E943308605A754166
:102670008F4F9F4F609331047093320480933304E3
:1026800090933404C11108C062E070E08BEF94E0D5
:102690000E94E812811105C0C09135048C2FCF91A2
:1026A000089581E080933504F7CFA3E0B0E0EBE537
:1026B000F3E10C94CB300E94CE1260936F037093C1
:1026C000700380937103909372033091B504232FAC
:1026D0002370722E19F0732E769476942091430114
:1026E0002130D1F0222351F0223009F4C7C3233026
:1026F00009F4CEC32396E1E10C94E7301092400137
:102700006093AD047093AE048093AF049093B004D3
:1027100081E080934301EECF90913E0181E07912F8
:102720000BC0832F837020913D0130E091E0821730
:10273000130609F490E0892F817080934201809103
:10274000BA0490914101981739F08093410140E01B
:1027500060E080E00E94D8093FE0371580F0E72D67
:10276000F0E0E454FE4C0C94433180914201882304
:1027700009F4C5C140E060E080E00E94D80980E033
:10278000BEC18091400189838BE09981989F802D03
:1027900011248983182F155F173308F016E30E9460
:1027A0006E11882319F01C3108F01BE10E946E1194
:1027B000811105C0E981EB3110F4FBE1F9836091EF
:1027C000B6047091B7048091B8040E94AD0A062F38
:1027D000F72EE82E3981232F30E03B832A839A811C
:1027E000911720F0812F0E94C81189C1EA81FB81D5
:1027F000E75CFD4F808190914101892339F02E2DB6
:10280000402F6F2D8A819B810E94D5098A819B81EF
:1028100001969B838A83E3CFE09140018BE0E89FA0
:10282000802D11248983182F155F173308F016E3C4
:102830000E946E11882319F01C3108F01BE10E94E0
:102840006E11811105C0F981FB3110F42BE1298350
:10285000F090B7040091B8043091B6043A83632F26
:102860007F2D802F0E94AD0AE62ED72EC82E6091B4
:10287000B9048A81680F7F2D802F0E94AD0A062F30
:10288000F72EB82EF981EF2FF0E0FB83EA833A812F
:10289000311708F0A7CFEA81FB81E75CFD4F9081FB
:1028A00080914101892361F02B2D402F6F2D90FDE8
:1028B00003C02C2D4E2D6D2D8A819B810E94D50940
:1028C0002A813B812F5F3F4F3B832A83E0CF80915A
:1028D000400189838BE09981989F802D1124898301
:1028E000182F155F173308F016E30E946E11882326
:1028F00019F01C3108F01BE10E946E11811105C016
:10290000E981EB3110F4FBE1F983F090B704E0903A
:10291000B8042091B90400E4029F012D11243981EB
:10292000232F30E03B832A839A81911708F05ACFF6
:10293000EA81FB81E75CFD4F808190914101892311
:10294000C9F0EA81FB81EE0FFF1FE356FE4F81A91C
:1029500082958F706091B604809F600D11247F2D49
:102960008E2D0E94AD0A462F282F672F8A819B81CA
:102970000E94D5098A819B8101969B838A83D4CF4B
:10298000E09140018BE0E89F802D11248983182F6E
:10299000155F173308F016E30E946E11882319F0B3
:1029A0001C3108F01BE10E946E11811105C0F981F4
:1029B000FB3110F42BE12983F090B704E090B804C8
:1029C0002091B90400E4029F012D11249981892FDF
:1029D00090E09B838A83FA81F11708F003CFEA81A4
:1029E000FB81E75CFD4F8081909141018923E9F0F3
:1029F000EA81FB81EE0FFF1FE356FE4F60A9069FA1
:102A0000B001112435E0759567953A95E1F780910D
:102A1000B604680F7F2D8E2D0E94AD0A462F282FF9
:102A2000672F8A819B810E94D509EA81FB813196BB
:102A3000FB83EA83D0CF209140018BE0289F802D3B
:102A400011248983182F155F173308F016E30E94AD
:102A50006E11882319F01C3108F01BE10E946E11E1
:102A6000811105C039813B3110F48BE189830091DC
:102A7000B6049091B7049A83F090B8046091B904B9
:102A80006695669566958091AD049091AE040E941E
:102A9000A30A0E946F0A805887FD8195880F282F0E
:102AA0003F2D239F212D1124822F602F7A810E9498
:102AB000AD0A062FF72EE82E9981892F90E09B838F
:102AC0008A83FA81F11708F08DCEEA81FB81E75CF9
:102AD000FD4F808190914101892339F02E2D402FA7
:102AE0006F2D8A819B810E94D509EA81FB813196F5
:102AF000FB83EA83E6CF8CEA99E00E9478129091FA
:102B000040019F5F909340018111B4C182E08093A6
:102B10004301809142018111ADC1772009F4B6C112
:102B20000E946E110E946E11E5CD82E899E0E5CF1A
:102B300084E59AE00E94D811E2CF88E39AE0FACFC8
:102B400080E899E0DACF87E699E0D7CF84E29AE08F
:102B5000F1CF209140018BE0289F802D11248983A3
:102B6000182F155F173308F016E30E946E118823A3
:102B700019F01C3108F01BE10E946E11811105C093
:102B800039813B3110F48BE18983809142018111BD
:102B900020C06091B90420E1620F08F46FEF8091CA
:102BA000AD049091AE040E94A30A6AE070E00E9416
:102BB000B630892B09F016CE0E948E0AE6E38E9F6E
:102BC000C001112460914101892F90E00E94410BC6
:102BD00009CE3981232F30E03B832A83E12EF12C6B
:102BE000EA81FB81EE15FF050CF0FCCD60914101FF
:102BF0008A819B810E94410B8A819B8101969B83E4
:102C00008A83EECFF09140018BE0F89F802D112454
:102C10008983182F155F173308F016E30E946E1191
:102C2000882319F01C3108F01BE10E946E118111FC
:102C300005C029812B3110F43BE13983F090B704B2
:102C40000091B8048091B6048A836091B9046695B6
:102C5000669566958091AD049091AE040E94A30A9A
:102C60000E946F0A805887FD8195880F682F2CE09D
:102C7000629F612D11249A81690F7F2D802F0E9400
:102C8000AD0A062FF72EE82EF981EF2FF0E0FB8337
:102C9000EA833A81311708F0A5CDEA81FB81E75C30
:102CA000FD4F808190914101892339F02E2D402FD5
:102CB0006F2D8A819B810E94D5092A813B812F5FDC
:102CC0003F4F3B832A83E5CF80914201882329F03F
:102CD00040E060E080E00E94D809909140018BE0E4
:102CE000682E989F600C112486E3861510F496E3F5
:102CF000692E0E946E11882329F09BE1961510F42D
:102D00008BE1682E0E946E114091AD045091AE048B
:102D10006091AF047091B00480918B0390918C030B
:102D2000A0918D03B0918E0384179507A607B7076E
:102D300008F08CC06091B6047091B7048091B8041B
:102D40000E94AD0A562E372E482E03E713E0EDE918
:102D5000F1E0FB83EA83AA80BB804501780192E021
:102D6000998302C0F1E0F983F70121917F01F40119
:102D700081914F0190E0F501C580D12C222309F407
:102D800067C0242D452D632D0E94D509242D452D86
:102D9000632DC6010E94D509F70180813197808398
:102DA000F1E0AF1AB10829812130E1F6EA81FB8117
:102DB000828190E0E380F12CF8012281222309F442
:102DC00050C0242D452D632D0E94D509242D452D5D
:102DD000632DC7010E94D5090E948E0A837091E07D
:102DE00009F090E0F80192830D5F1F4F2A813B812B
:102DF0002A5F3F4F3B832A838DEC91E08217930734
:102E000009F0A9CF2091B90430E1230F08F42FEF86
:102E100060E1822F90E00E94A30ABC0188EB9BE056
:102E20000E94B6308091AD049091AE04A091AF04A1
:102E3000B091B004860F971FA11DB11D80938B0325
:102E400090938C03A0938D03B0938E03862DCBCCEF
:102E500020E040E060E00E94D50920E040E060E032
:102E600098CF20E040E060E00E94D50920E040E0FB
:102E700060E0AFCF772009F43DCC52CE70923E0196
:102E8000832F837080933D010E94141183E041CC15
:102E90008091B404882351F048E050E068E170E08C
:102EA00085EB94E00E9486311092B404C090AD048A
:102EB000D090AE04E090AF04F090B0040E946E1188
:102EC0008823C1F02FB7F89460913E0470913F04BD
:102ED00080914004909141042FBF6C197D098E09A7
:102EE0009F09603171058105910508F403CC1092AA
:102EF000430100CC0E94CE12F0CFE5EBF4E085E078
:102F000080838091450190914601A0914701818382
:102F10009283A3838FE784838FEF858348E050E01B
:102F200068E170E0CF010E9486311092B4040895E8
:102F30009091430492FB222720F9281779F080FB17
:102F400092F990934304609142047091430484E0A9
:102F500090E00E94B43182E00E94CB0E0895A4E07C
:102F6000B0E0E5EBF7E10C94D930409108035091C3
:102F7000090360910A0370910B032FB7F8948091B5
:102F80003E0490913F04A0914004B09141042FBFB2
:102F9000841B950BA60BB70B11E084369105A10598
:102FA000B10570F10E94CE126E5F7F4F8F4F9F4F21
:102FB00069837A838B839C838091190190911A0194
:102FC0008E509D4F4091180150E04530510510F052
:102FD00044E050E0BE016F5F7F4F0E945F3183E0AD
:102FE00090E00E944030182F882351F00E9433084F
:102FF000609308037093090380930A0390930B0373
:10300000812F2496E3E00C94F530EF92FF921F930A
:10301000CF93DF9300D000D00F92CDB7DEB77B0106
:1030200090E080E00E944030182F882309F46DC0A2
:103030004091030150E04115510511F041E050E08D
:1030400060910401709105016E507D4FCE0105968F
:103050000E945F314091EA025091EB026091EC02D4
:103060007091ED022FB7F89480913E0490913F0447
:10307000A0914004B09141042FBF841B950BA60B77
:10308000B70B84369105A105B10538F483EF92E0C2
:103090000E94AC069D818917C1F181E090E00E94F9
:1030A0004030882309F458C040910B0150E045306E
:1030B000510510F044E050E060910C0170910D0159
:1030C0006E507D4FCE0101960E945F3183EF92E0FA
:1030D0000E94AC069D8189133FC00E943308609313
:1030E000EA027093EB028093EC029093ED028981E7
:1030F0009A81AB81BC818093E6029093E702A09312
:10310000E802B093E90211E00EC08091F3029091C1
:10311000F402A091F502B091F60289839A83AB8301
:10312000BC831111E4CF8091E6029091E702A09157
:10313000E802B091E902F70180839183A283B3830F
:10314000812F0F900F900F900F900F90DF91CF91E4
:103150001F91FF90EF90089510E0E5CF4F925F929E
:103160006F927F928F929F92AF92BF92EF92FF9257
:103170000F931F93CF93DF937B01FB01408051801E
:10318000628073809FB7F89480903E0490903F04D3
:10319000A0904004B09041049FBF84189508A608F1
:1031A000B708F4E68F169104A104B10418F4C1E045
:1031B000442329F1C82F880FDD0BFE0183E0EE0FB9
:1031C000FF1F8A95E1F7E050FF4F818192818E5079
:1031D0009D4F408150E00417150708F4A801B9017C
:1031E0000E945F31CE010E944030C82F882339F001
:1031F0000E943308F70160837183828393838C2F4D
:10320000DF91CF911F910F91FF90EF90BF90AF9002
:103210009F908F907F906F905F904F900895A9E05E
:10322000B0E0E5E1F9E10C94D83088E0E5EBF4E0BA
:10323000DE01119601900D928A95E1F7198649E019
:1032400050E06FEF72E0CE0101960E94523141E0F2
:10325000892B09F440E009E010E09E012F5F3F4F09
:103260006CE073E084E00E94AE182996E4E00C94D0
:10327000F4300F931F93CF93DF93EC0144E050E0C1
:1032800067EF72E00E94523141E0892B09F440E07F
:1032900004E010E09E016EEE72E082E00E94AE1843
:1032A000DF91CF911F910F910895A8E0B0E0EBE579
:1032B000F9E10C94DA3066EE7EEF90E080E00E9457
:1032C000B43160E082E090E00E94963160E083E0FB
:1032D00090E00E9496311092D8021092D70260E0DE
:1032E00074E184E090E00E94B43160E086E090E018
:1032F0000E9496316FEF87E090E00E94963140E0A7
:1033000050E0BA0188E090E00E94A83160E084E2D9
:1033100090E00E94963160E087E190E00E94963153
:1033200060E08CE090E00E94963160E08DE090E0FB
:103330000E94963119821A821B821C821D821E8273
:103340001F82188648E050E068E170E0CE010196E7
:103350000E94863140E050E0BA0180E290E00E9495
:10336000A83140E050E0BA018FE090E00E94A8311F
:1033700040E050E0BA0183E190E00E94A831289635
:10338000E2E00C94F6301F920F920FB60F921124C8
:103390002F933F934F935F936F937F938F939F935D
:1033A000AF93BF93EF93FF938091E10082FF09C039
:1033B0008091E20082FF05C08091E1008B7F8093C5
:1033C000E1008091DA0080FF24C08091D80080FF66
:1033D00020C08091DA008E7F8093DA008091D9003E
:1033E00080FF9DC080E189BD82E189BD09B400FEF6
:1033F000FDCF81E08093690480914404811109C06C
:103400000E94D6060E9477078091E2008460809334
:10341000E2008091E10080FF17C08091E20080FF10
:1034200013C08091E2008E7F8093E2008091E200E1
:1034300080618093E2008091D80080628093D80000
:1034400019BC85E0809369048091E10084FF2BC062
:103450008091E20084FF27C080E189BD82E189BDBF
:1034600089B5982F917080FFFBCF8091D8008F7D18
:103470008093D8008091E1008F7E8093E10080915D
:10348000E2008F7E8093E2008091E2008160809371
:10349000E20080916A04882309F447C084E08093A5
:1034A0006904809169048091E10083FF27C08091C5
:1034B000E20083FF23C08091E100877F8093E100D9
:1034C00082E08093690410926A048091E1008E7F0B
:1034D0008093E1008091E2008E7F8093E2008091F2
:1034E000E20080618093E20042E060E080E00E94C0
:1034F00045078091F00088608093F000FF91EF9184
:10350000BF91AF919F918F917F916F915F914F91FB
:103510003F912F910F900FBE0F901F90189519BCDF
:10352000109269041092440474CF8091E30087FDE7
:1035300093E090936904B5CF78941F921FB61F92C1
:1035400011248F939F93AF93BF9380913E049091EA
:103550003F04A0914004B09141040196A11DB11D0A
:1035600080933E0490933F04A0934004B0934104A1
:10357000BF91AF919F918F911F901FBE1F90189583
:103580009C014FB7F89480913E0490913F04A09124
:103590004004B09141044FBF821B930B08952FB795
:1035A000F89480913E0490913F04A0914004B09122
:1035B00041042FBF08950E94CF1A9C0190916B0384
:1035C00080916C03982B21F030936803209367035C
:1035D00090916D0380916E03982B21F030936603D8
:1035E00020936503E0913904F0913A04309749F053
:1035F00082E0809369030480F581E02D89E693E001
:10360000099508951092D60280913F01E4E7F2E017
:10361000882329F18091420487FF21C08EE1DF01D8
:103620001D928A95E9F790E080E00E94C30890E03F
:1036300080E00E949E081092D5020E94051086E04C
:10364000E9E6F3E0DF011D928A95E9F71092620343
:1036500010926303109264030E94DB1A089586E0BF
:10366000DECFAAE2B0E0E7E3FBE10C94D9308BE6D1
:1036700094E02091F100FC012193CF01F4E0833725
:103680009F07B9F780916C04833009F470C0B8F4D7
:10369000813009F447C0823009F4B1C08091E8005C
:1036A00083FF7EC280916B0490916C049A3008F085
:1036B00077C2E92FF0E0E453FE4C0C9443318A309A
:1036C00009F48CC08B3009F46FC0893039F78091D0
:1036D0006B04813219F780916F0490917004029706
:1036E000E8F68091E800877F8093E8008091E80009
:1036F00082FF38C09091F3008091F200029731F47C
:103700008091F100813011F0863021F48091F10038
:10371000809346048091E8008B778093E8000E94B4
:103720002607BCCF80916B04813A09F0B7CF809116
:10373000E800877F8093E80080916F049091700487
:10374000892B61F460E287E494E070E00E94D20784
:103750008091E8008B778093E800A0CF60E090E054
:1037600080E0F3CF809169048111C0CF97CF809121
:103770006B04813A09F092CF80916F0490917004AC
:10378000892B09F08BCF8091E800877F8093E80038
:103790008091E80080FFFCCF80913F018093F10091
:1037A0008091E8008E77B9CF80916B04813209F067
:1037B00075CF80916F0490917004892B09F06ECFC2
:1037C0008091E800877F8093E8000E94260780911F
:1037D0006D0480933F010E94021B60CF80916B04B7
:1037E000813209F05BCF8091E800877F8093E80009
:1037F0000E94260780916E04809345044FCF8091EC
:103800006B04813A09F04ACF8091E800877F80936A
:10381000E8008091E80080FFFCCF80914504BECF96
:10382000803899F0823809F0BBC180916F048F70A5
:10383000873008F0B5C18093E9008091EB0085FBEB
:10384000882780F91092E90006C080916704909162
:103850006804911182609091E800977F9093E8004E
:103860008093F1001092F1008091E8008E7794C16E
:10387000882309F482C1823009F092C180916D04DD
:10388000811185C180916F048F702FEF280F263032
:1038900008F086C18093E9002091EB0020FF77C1FA
:1038A000933031F48091EB0080628093EB006FC124
:1038B0009091EB0090619093EB0021E030E001C02B
:1038C000220F8A95EAF72093EA001092EA0080918D
:1038D000EB008860EACF811163C110916D041F77FE
:1038E0008091E3008078812B8093E3008091E80051
:1038F000877F8093E8000E9426078091E80080FF80
:10390000FCCF8091E30080688093E30082E0111196
:1039100083E08093690444C18058823008F040C13C
:1039200080916D0490916E048C3D23E09207A1F587
:1039300083E08A838AE289834FB7F894DE01139685
:1039400020E03EE051E2E32FF0E050935700E49195
:1039500020FF03C0E295EF703F5FEF708E2F90E085
:10396000EA30C0F0C7968D939D932F5F243159F7AD
:103970004FBF8091E800877F8093E8006AE270E0A3
:10398000CE0101960E94D2078091E8008B77809348
:10399000E80006C1C096E7CF40916F0450917004D3
:1039A000292F33272330310509F444C078F521301D
:1039B000310509F46FC08BE390E0E5EFF5E02230CC
:1039C000310509F0EDC02091E800277F2093E80041
:1039D00020917104309172048217930708F49C01BE
:1039E00040E02115310509F064C0411162C08091A9
:1039F000E80082FDC9CF80916904882329F28530CF
:103A000019F28091E80083FFF2CFBECF2132310559
:103A1000A9F12232310509F0C3C04115510509F45D
:103A200043C04130510509F0BBC086EB90E0EFEF99
:103A3000F4E0C9CF992781309105C1F0009759F082
:103A4000029709F0ADC0E2E4F6E0E4918E2F90E039
:103A5000E2E4F6E007C0E2E6F6E0E4918E2F90E0C3
:103A6000E2E6F6E0009709F49BC0ADCFE0E5F6E0B2
:103A7000E4918E2F90E0E0E5F6E0F4CF411551059A
:103A800071F04130510509F08BC089E090E0E0E22F
:103A9000F6E099CF82E190E0E0E3F6E094CF89E0B0
:103AA00090E0E7E0F6E08FCF80E490E0E5EBF5E032
:103AB0008ACF80916904882309F466CF853009F4A0
:103AC00063CF8091E80083FD5FCF8091E80082FDA5
:103AD0008ECF8091E80080FF84CF9091F300809199
:103AE000F2002115310519F08830910550F041E0C0
:103AF000089709F040E08091E8008E778093E80015
:103B000070CF44914093F1003196215031090196D4
:103B1000E8CF803809F044C08091E800877F809327
:103B2000E80080916A048093F1009ECE811138C034
:103B300010916D041230A0F58091E800877F80938A
:103B4000E80010936A040E942607112311F084E014
:103B500005C08091E30087FDFACF81E0809369047E
:103B600042E061EC81E00E94450742E261EC82E0C4
:103B70000E9445078091690413C080916D048130D3
:103B800079F481E0933009F080E08093680410922A
:103B9000E9008091E800877F8093E8000E94260773
:103BA0008091E80083FF0AC08091E800877F8093BE
:103BB000E8008091EB0080628093EB00AA96E3E03E
:103BC0000C94F5301F920F920FB60F9211242F9381
:103BD0003F934F935F936F937F938F939F93AF9395
:103BE000BF93CF93DF93EF93FF93D091E900DF7002
:103BF0008091EC00C82FC17080FDC0E81092E900F0
:103C00008091F000877F8093F00078940E94311BB0
:103C10001092E9008091F00088608093F000CD2B35
:103C2000CF70C093E900FF91EF91DF91CF91BF91E9
:103C3000AF919F918F917F916F915F914F913F9144
:103C40002F910F900FBE0F901F9018950E94021B8E
:103C50002FEF84E39CE0215080409040E1F700C0CA
:103C6000000088E19CE00FB6F894A895809360006E
:103C70000FBE90936000FFCF662309F45DC08D3CBA
:103C800041F40E949E0B819580936C030E94DB1A85
:103C900008958E3C19F40E949E0BF6CF8F3C31F4B0
:103CA0000E949E0B819580936B03F0CF803D19F4A9
:103CB0000E949E0BF8CF893D29F40E947C0B8093D3
:103CC0006D03E4CF8A3D21F40E947C0B8195F7CFF0
:103CD0008B3D31F40E947C0B819580936E03D6CF8F
:103CE0008C3D19F40E947C0BF8CF9FE2980F98301E
:103CF00070F4815D990B21E030E001C0220F8A95BC
:103D0000EAF780916A03822B80936A03BFCF8D3DCF
:103D100031F480916403816080936403B7CF8E3D5A
:103D200021F4809164038260F7CF8F3D09F0AECF1C
:103D3000809164038460F0CF40916B038D3C59F413
:103D400080916C0387FF0DC010926C0341110BC072
:103D50001092620308C08E3C81F480916C031816A7
:103D60009CF3442381F080916D0390916E03892B25
:103D700009F08CCF1092630389CF8F3C49F447FF41
:103D8000F0CF10926B0380916C038111ECCFE0CFE8
:103D9000803D19F41416ACF3E4CF90916D03893D86
:103DA00029F41916F4F610926D03DBCF8A3D19F44D
:103DB00097FFD7CFF8CF90916E038B3D29F497FFF3
:103DC000D0CF10926E03CDCF8C3D19F41916CCF3E1
:103DD000C8CF9FE2980F983090F4815D990B21E055
:103DE00030E0B90102C0660F771F8A95E2F7CB0178
:103DF000809590916A03892380936A03B2CF8D3DA9
:103E000031F4809164038E7F80936403AACF8E3D4A
:103E100021F4809164038D7FF7CF8F3D09F0A1CF0E
:103E2000809164038B7FF0CF882399F19CEF980FEA
:103E3000913A40F4682F82E792E00E943F080E9486
:103E40000510089590E2980F983050F4877091E033
:103E500001C0990F8A95EAF7892F0E94F90DEFCFDB
:103E60009BE5980F933028F490E080E00E94C3080F
:103E7000089598E5980F9B3128F490E080E00E9427
:103E80009E08089593E3980F933118F460E00E9420
:103E90003C1E0895CF93C82F8823D1F18CEF8C0F4F
:103EA000813AC0F580913F01882311F1809142044D
:103EB00087FF1EC0EC2FE695E695E695F0E0EE58FC
:103EC000FD4F828190E04C2F477021E030E002C02E
:103ED000220F331F4A95E2F782239323892B89F01F
:103EE0006C2F82E792E00E943F080E94051009C0F3
:103EF000E4E7F2E08191C81799F382E0EA37F80726
:103F0000C9F76C2F82E792E00E9469080E940510B1
:103F1000CF91089580E28C0F883068F4C77021E05B
:103F200030E001C0220FCA95EAF78091D602822BB9
:103F30008093D602EBCFEBE5EC0FE33040F4F0E0FA
:103F4000E85BFE4F808190E00E94C308E1CFE8E586
:103F5000EC0FEB3150F4F0E0EE0FFF1FE55BFE4F8E
:103F6000808191810E949E08D3CF83E38C0F83319F
:103F700078F661E08C2F0E943C1ECACF0F931F93EE
:103F8000CF93DF93C62FD42F022FFC018581882386
:103F9000A9F06093B3040E94CF1A9093B204809367
:103FA000B104C77081E001C0880FCA95EAF70E948A
:103FB0006110DF91CF911F910F9108958091B3040B
:103FC000681335C08091B1049091B2040E94C01A68
:103FD000883C910560F510E21D0FCD17B9F080E225
:103FE0008C0F883040F4C77081E001C0880FCA95FB
:103FF000EAF70E945A10183048F481E09D2F97701C
:1040000001C0880F9A95EAF70E946110802F0E94E4
:104010004A1F802F0E94141F183058F6D77081E075
:1040200001C0880FDA95EAF70E945A10C2CFC77014
:1040300081E001C0880FCA95EAF7F6CFB0E0A0E0B2
:10404000E4E2F0E20C94D2308C01FC0184818823FC
:1040500009F468C021E040815181628173819581BA
:104060000E941A0FEC01F8019581992309F448C4C4
:1040700080E280933301D0933A03C09339039E01C9
:1040800030522115304238F4F8018681807F09F4DE
:1040900065C0FE010AC09E0130542115304100F573
:1040A000F8018681807FFE0109F0FF27ED33F105DD
:1040B00060F4E455FF4FE491E0933301F80181810E
:1040C00080933C03808180933B03FE01E851FC47D1
:1040D000E730F10508F042C0EA52FE4C0C9443313F
:1040E0009E013A9521153F41A0F29E01205A32458A
:1040F0002032310550F3FE01D9CF26E241EE61EEC8
:10410000C8010E94BE1F8091B302877059F0F80168
:104110008581882339F08091430482FF03C082E0C7
:104120000E94CB0ECDB7DEB7EAE00C94EE3027E26A
:1041300045EE65EEE5CF26E241EE60EEE1CF27E207
:1041400045EE64EEDDCF26E241EE62EED9CF27E206
:1041500045EE66EED5CF28E241E0EBCF1092B304F6
:104160009E0130572332310508F0E4C384E090E02B
:104170000E9480319093430480934204FE01E150F9
:10418000F047E232F10520F4E352FE4C0C94433147
:104190008091420481608093420495C080914304E1
:1041A0008860809343048FC0809142048260F3CF83
:1041B000809142048460EFCF809142048860EBCF0D
:1041C000809143048160EDCF809143048260E9CF08
:1041D000809142048061DFCF809142048062DBCF16
:1041E000809142048064D7CF0E94021B80914204D8
:1041F0008068D1CF809142048C60CDCF8091430400
:104200008360CFCF809142048E7FC5CF80914304DD
:10421000877FC7CF809142048D7FBDCF80914204BC
:104220008B7FB9CF80914204877FB5CF80914304C3
:104230008E7FB7CF809143048D7FB3CF80914204AE
:104240008F7EA9CF809142048F7DA5CF80914204BB
:104250008F7BA1CF0E94021B809142048F779BCF5E
:1042600080914204837F97CF809143048C7F99CFC4
:104270008091420482FB992790F921E0922790FBDC
:1042800082F990FB83F987CF80914304982F909512
:1042900091708E7F892B90FB81F983CF909142049E
:1042A000892F8F7B96FF806476CF0E94021B9091AE
:1042B0004204892F97FB87F980586DCF61E08EE02B
:1042C00090E00E949631609142047091430484E032
:1042D00090E00E94B4310E94021B15CF60E0EFCF46
:1042E00090914204892F8F7E94FF806154CF9091EA
:1042F0004204892F8E7F90FF81604DCF90914304BF
:10430000892F877F93FF88604CCF8091920269E26A
:10431000811165E382E792E00E943F081FC3992361
:1043200009F4FAC2C3302CE7D20709F4BDC008F083
:10433000A0C0C1158CE7D80709F4A9C0C130DC477B
:1043400009F4B8C0F8018581C081D181882309F4BE
:10435000BFC0CE010E940A0EF82E682FCE010E9427
:104360007E0EBE018F2D0E94BC0C0E94DB0CD82F4C
:10437000C92FA82EF801C580B680B2943FE0B322C1
:104380008091B3028770F1F0EC2CCC20E1F0892F02
:10439000807F803451F080E28D0F883098F0B1102A
:1043A00004C0892F807E803269F08091430482FFAF
:1043B00009C082E00E94CB0E8091B3028770EE2488
:1043C000E3948111E12CDC2ED2942FE0D222FBE089
:1043D000FD1508F4E2C0ED2DF0E0E150FE4C0C9428
:1043E00043318091B50491E089278093B504109200
:1043F00043018091B40481608093B40484CE42E58B
:1044000059E06CE579E00E94E8087DCE4CE559E082
:1044100062E579E0F8CF4EE359E068E479E0F3CF64
:1044200048E459E06EE379E0EECF44E259E061E31D
:1044300079E0E9CF41E359E064E279E0E4CF4AE092
:1044400059E067E179E0DFCF47E159E06AE079E0E0
:10445000DACF4EEE58E06CEF78E0D5CF4CEF58E075
:104460006EEE78E0D0CF81E00E9474064CCE85E0FD
:10447000FBCFCB35ECE7DE0749F1CC35FCE7DF07B6
:10448000D9F0CA35DC4709F05DCF81E01CC00E943D
:10449000021B3FEF84E39CE0315080409040E1F705
:1044A00000C000000E94F0106FEF7FEF90E080E00E
:1044B0000E94B4310E94261E8091430482FB88270B
:1044C00080F991E089270E9498173CCF80E0FBCFCC
:1044D000CE010E944B0EF82E44CF2C2F2F70F22EBF
:1044E000C07F19F0F29490EFF922CC20B9F0FF20B0
:1044F00069F080E28D0F883010F0A11009C0809122
:10450000D602F82AF092D6020E9405108D2F43C0E1
:104510008091D502F82AF092D502F6CF8D2F0E9415
:10452000141FFF20D1F1D05ED83010F0A11004C0CC
:104530008F2D0E94F90D06C0F0948091D502F822CB
:10454000F092D5020E94051028C03C2F3F70F32E38
:10455000C07FC03219F0F29480EFF822AA2059F0FF
:1045600081E0A81609F479C0CC2009F485C0BB20ED
:1045700009F447C0CBCF8091430482FD3EC0CC20DC
:10458000B1F1FF2039F08091D602F82AF092D602DC
:104590000E94051080E00E944A1F2D2D2850330BE9
:1045A0002430310510F40E949311EE20A9F080917F
:1045B000B30280FD11C0F801158286958695869517
:1045C0000E94E20EC8010E941E208091B3028695CF
:1045D000869586950E94B90E20E0F80140815181B0
:1045E00062817381848195810E941A0F9BCD80E046
:1045F0000E94141FFF2089F29BCFCC20A1F0B110A4
:1046000004C08F2D0E946110C8CF91E0B912C5CFB0
:104610008091D4029F2D9823F91609F4BECFF82A71
:10462000F092D402BACFB110B8CF8F2D0E945A1099
:104630009091D4028F2D892329F08F2D8095892385
:104640008093D402809193029F2D982309F4A5CFE3
:10465000F094F822F0929302A0CFCC2029F0E5E06C
:10466000EB1508F49ACFCDCFF4E0FB1508F495CF05
:104670008F2D0E945A1091CFBB20D1F329E3A212B3
:1046800009C03FEF87EE93E0315080409040E1F762
:1046900000C000008D2F0E94141F7FCF8C2F8695A5
:1046A0008695837069F0813009F077CF8D2F9C2F2C
:1046B0009370C11002C080E090E00E949E086DCF10
:1046C0008D2F9C2F9370C11002C080E090E00E945B
:1046D000C30863CF6C2D8D2F0E943C1E5ECF8C2FA4
:1046E000837009F03FC0C11058CF4D2F42954695B9
:1046F0004770440F440F2D2F2F7030E0042E02C05E
:10470000220F331F0A94E2F790E080E0D4FF09C043
:104710008FE090E002C0880F991F4A95E2F78095DC
:104720009095C695C695C370C23099F078F44091C3
:10473000D7025091D802C13039F0822B932B8423B9
:1047400095230E94F20E29CF242B352B822B932BFD
:10475000F8CF822B932B2091D7023091D802822759
:104760009327EFCF8695CC2011F08C2F8170882372
:1047700009F413CF4D2F429546954770440F440FCF
:104780002D2F2F7030E0042E02C0220F331F0A9409
:10479000E2F790E080E0D4FF09C08FE090E002C033
:1047A000880F991F4A95E2F780959095C695C69512
:1047B000C370C23099F078F44091300350913103C6
:1047C000C13039F0822B932B842395230E94B40EA1
:1047D000E4CE242B352B822B932BF8CF822B932BDB
:1047E000209130033091310382279327EFCFCF7090
:1047F000CC2029F08C2F0E94E20E8D2F03CF8D2F1D
:104800000E945A108C2F0E94B90EC7CE8D2FE2EF56
:10481000AE1699F1EA1570F0F0EFAF16D1F021EF76
:10482000A21691F0CC2009F45BC0B1106FCE8C2F92
:104830008F7127C033EFA31639F194EFA912F2CF8D
:104840008091430482FD2EC08C2F8F71CC20D9F231
:1048500018C0CC2069F0E4E0EB1508F49ECECF71CF
:1048600081E090E002C0880F991FCA95E2F7B8CFA7
:10487000F5E0FB1508F491CEF2CF8C2F8F71C110AB
:10488000C2CF0E94E20E89CE90E080E0CC2009F4F5
:104890009DCFCF7181E090E002C0880F991FCA952B
:1048A000E2F794CFCC2089F0CF718C2F0E94E20EDA
:1048B0008091430482FF07C028E0C29FC0011124F9
:1048C00083608093B3028C2FDCCF81E00E94CB0EFB
:1048D00031E03B1508F061CE82E00E94CB0E5DCE48
:1048E000BB2059F0893309F0D5CE8FEF97EEE3E086
:1048F00081509040E040E1F7CBCE8C2F8F7183CF79
:10490000FE01E851FC47E730F10508F4E5CBC6317C
:10491000FCE7DF0709F4F9CC8091D6028272FE0130
:10492000E052F847E531F10508F00CCDE55FFD4CAC
:104930000C944331C631FCE7DF0709F0F0CC8091DD
:10494000D6028A7A91E009F490E09093920269E2AB
:10495000811165E382E792E00E9469080E940510D8
:10496000D2CBCF93DF938091B202807F09F04DC00C
:104970008091B102882309F448C0E091AC045091C1
:104980007304C091AD02D091AC026091AE027091FF
:10499000AF0247E05E17C9F18E2F90E0E49FF0016F
:1049A0001124EC58FB4F2481222391F1489FF00100
:1049B000499FF00D1124DF01AC58BB4F11962C918B
:1049C00011972C1325C02C912D1322C015962C91D4
:1049D000159721111DC012962D913C91261B370B66
:1049E000283C3105A8F48091B2028F7080618093D9
:1049F000B202E658FB4F80818F70806180838CEA21
:104A000092E00E941E200E94000EDF91CF91089537
:104A1000FC013196E770BECFA4E1B0E0E2E1F5E23F
:104A20000C94D0308C0186E0F801DE011F960190D5
:104A30000D928A95E1F7F8018481E5809CEAA92E20
:104A400092E0B92E9091B002911128C0882319F1FB
:104A5000EE20F1F0C8010E94F70EF82E8823C1F075
:104A600087E0F801D50101900D928A95E1F78091D8
:104A7000B002813031F48091AC029091AD020E947D
:104A80003E0E0E94B1248F2D6496ECE00C94EC3025
:104A9000C8010E941E20FF24F394F5CFD080C1806E
:104AA00082809380F090B1022091AE023091AF02EB
:104AB000A401421B530BFF2009F4D9C0483C510507
:104AC00008F092C08823F9F29091AD028091B20271
:104AD000282F207F09F056C0C91214C09091AC0253
:104AE000D91210C0E11048C08F7080618093B2026B
:104AF0008CEA92E00E941E208091B202F801868327
:104B0000F12CC1CFE11038C06C2D8D2D0E948D0687
:104B10006C2D8D2D0E948D06E82E8111F1CFDF8640
:104B2000C88A8F8598890E943E0E292F22952F7062
:104B3000243058F49F70223088F0992399F0F801BE
:104B40009681907F79F4FE2C9ECF2A5F2F702230C1
:104B500068F0C8010E941E20EF2CF5CF992311F0B8
:104B6000882389F3805E883070F3F3CF803F58F359
:104B7000815F833070F7E7CF8091B20281608093CC
:104B8000B202BECFC91207C09091AC02D91203C0C5
:104B9000EE2009F48DC0C8010E94F70E882309F4A5
:104BA00077CFEE2009F474CF8091B202803288F082
:104BB0002091AC023091AD02398728879B868A8686
:104BC0009091B0029C871D868E87CE0108960E9428
:104BD0001E2087E0F801ACEAB2E001900D928A95C0
:104BE000E1F70E94B12457CF9091B202292F207F84
:104BF00051F48CEA92E00E941E2087E0F5011192A8
:104C00008A95E9F77DCF882309F43DCF8091AD02E5
:104C10008C1110C08091AC02D8120CC0E1100AC0F7
:104C20009683C8010E941E2087E0F50111928A95A3
:104C3000E9F729CFC8010E94F70E882309F428CF8D
:104C4000EE2009F425CF8091B202803210F220913B
:104C5000AC023091AD023A8329839C828B82909181
:104C6000B0029D831E828F83CE010196B0CF483C57
:104C70005105D0F6882309F40ECFFE2CEE2009F45E
:104C800007CF8091AD028C1120C08091AC02D81268
:104C90001CC08091B20280FD0FC0982F907F61F000
:104CA0008683903F31F0982F907F905F8F70892B93
:104CB0008683C8010E941E2087E0F801ACEAB2E0BA
:104CC00001900D928A95E1F7DECEC8010E94F70EA1
:104CD00081117FCF8091B20281608093B202C801BE
:104CE0000E941E20D0CEABE1B0E0E9E7F6E20C94E2
:104CF000D8304E8B5F8B688F798F8A8F9B8F192F5F
:104D000091111092D5021D8A86E0FE017696DE0191
:104D10001F9601900D928A95E1F70A8D002341F0CC
:104D200021E04F85588969897A89C8010E941A0F44
:104D30000B8B1C8B87E0FE013F96DE0118960190DD
:104D40000D928A95E1F7CE0108960E940C258111FB
:104D50002AC087E0FE013896DE01119601900D927F
:104D60008A95E1F78C858823F1F02091730430E077
:104D7000C9010196877099274091AC04481719061C
:104D8000E9F097E0929FD001939FB00D1124AC58A9
:104D9000BB4FFE01319601900D929A95E1F78093F9
:104DA00073040E94000E17E08091AC04909173048C
:104DB000891312C06B96E4E00C94F4300E94021B3D
:104DC000109273041092AC0487E0ECEAF2E0DF0189
:104DD0001D928A95E9F7E7CF819FC00111248C5875
:104DE0009B4F0E940C25882329F38091AC0490E00E
:104DF0000196877099278093AC04D6CFACE0B0E0E1
:104E0000E4E0F7E20C94CF308E010F5F1F4F88E093
:104E1000D8011D928A95E9F783E8C82E81E0D82E43
:104E2000F12CE12CAA24A394B12C2DE8822E21E0B0
:104E3000922EF60181916F018F3F09F442C0F894E0
:104E4000E82FE295EF70F0E021A18F70A50102C07C
:104E5000440F551F8A95E2F7CA01922F982B91A310
:104E600092A18095892382A3789400C0E7E8F1E0BD
:104E7000712C31E021912F3F09F46BC0A22FA29534
:104E8000AF70B0E090968C9190E02F7002C0959535
:104E900087952A95E2F780FD5CC0832F782A330F2F
:104EA0008E169F0639F7F601319780818F3F11F0FA
:104EB0000E94C00B50EA5A95F1F7F801EE0DFF1D64
:104EC00070828FEFE81AF80AA4E0EA16F10409F0FC
:104ED000B0CF48E050E0B80185E193E00E94523144
:104EE000009741F028E0F801A5E1B3E001900D92B0
:104EF0002A95E1F700911E03892B69F181E08093E7
:104F0000DD020E94CF1A9093DC028093DB02809135
:104F1000DB029091DC020E94C01A059700F110E0BC
:104F2000015E1C4F44E050E065E173E0C8010E945F
:104F30005231B12C892B51F084E0E5E1F3E0D80146
:104F400001900D928A95E1F7BB24B3941092DD0293
:104F500007C080E0A3CF8091DD028111D8CFB12CB2
:104F60000E946E11A82EE0911E03882309F489C0C7
:104F700019861A861B861C860E2F10E0015E1C4FB8
:104F8000809110038A3008F046C045E058E1BE0128
:104F9000675F7F4FC8010E943B11882309F460C0FE
:104FA00049E359E1BE01675F7F4FC8010E943B1191
:104FB000882309F455C04FEA57E1BE01675F7F4F70
:104FC000C8010E943B11882309F44AC04FE059E10F
:104FD000BE01675F7F4FC8010E943B11882309F41F
:104FE0003FC01092100380911D0390E044E050E018
:104FF000BE01675F7F4F815E9C4F0E94523121E06E
:105000002093E402892BF1F4A12C8A2D8B292C9674
:10501000EDE00C94EB308091DE029091DF020E9473
:10502000C01A843F914008F0B0CF8091E4028823F9
:1050300059F3FE01399684E0DF011D928A95E9F764
:105040001092E402E0911D03F0E0E15EFC4F8985DF
:105050009A85AB85BC8580839183A283B383D5CFAA
:10506000809110038F3F31F08F5F809310038A305F
:1050700008F4B9CF0E94CF1A9093DF028093DE022A
:10508000D4CF00911D0310E0015E1C4FF0E0E15E03
:10509000FC4F84E0A3EFB2E001900D928A95E1F716
:1050A00083EF92E00E94AC068093F20284E0E7EF87
:1050B000F2E0D80101900D928A95E1F7C090FB02D1
:1050C000D090FC02E090FD02F090FE028091E002A0
:1050D0009091E102A091E202B091E302C816D906D4
:1050E000EA06FB06D1F0C092E002D092E102E09223
:1050F000E202F092E3020E946E1181110EC00E9442
:105100003308C61AD70AE80AF90AC0921103D092E6
:105110001203E0921303F092140388E0EFEFF2E041
:10512000A5EBB4E001900D928A95E1F76ECFA6E071
:10513000B0E0EDE9F8E20C94D8300E94CF1A8C016F
:105140008091D9029091DA028017910781F019823B
:105150001A820E94CF1A682F49815A81792F80E0E4
:1051600090E00E9473261093DA020093D9022696EB
:10517000E4E00C94F4301F921FB61F9211248F9319
:105180009F93AF93BF9380913D04811113C0809191
:105190003E0490913F04A0914004B0914104419697
:1051A000A11DB11D80933E0490933F04A093400441
:1051B000B0934104BF91AF919F918F911F901FBEFB
:1051C0001F901895CDB7DEB760970FB6F894DEBF85
:1051D0000FBECDBF85B7806885BF85B7806885BFA6
:1051E00084B7877F84BF0FB6F894A895809160003C
:1051F000886180936000109260000FBE80E890E0AC
:105200000FB6F89480936100909361000FBE8EEB0F
:105210009BE090937102809370020E94D6060E94D8
:1052200077078091E20084608093E2007894809117
:1052300069048823A1F01091E9001F709091EC009F
:10524000892F817090FD80E8182B1092E9008091E1
:10525000E80083FD0E94311B1F701093E90082E07B
:1052600084BD93E095BD9AEF97BD80936E00109238
:1052700011031092120310921303109214030E9450
:105280006E11809328010E946E1181110E94542F8B
:10529000809128018091280194E0811190E0909301
:1052A0001E0384E0891B80931D0384E90E94C00BC8
:1052B00086E60E94C00B87E90E94C00B86EC0E9424
:1052C000C00B07E811E0D8018D918D018F3F11F0DF
:1052D0000E94C00BB1E00D381B07A9F788E0EFE191
:1052E000F3E0DF01282F1D922A95E9F7E5E1F3E0CD
:1052F000DF011D928A95E9F790E080E00E948031FD
:10530000863E9E4F11F00E94551982E090E00E9467
:1053100078318093270384E090E00E94803190935D
:105320004304809342040E94FE26EFEFF6E721E05B
:10533000E150F0402040E1F700C000000E94FE264E
:105340000E946E11E4E08111E0E0F0E0E15EFC4FCC
:10535000808181FF08C06FEF7FEF90E080E00E94C6
:10536000B4310E94F01083E090E00E94783190E028
:105370000E94F20E90E080E00E948031863E9E4FB7
:1053800021F00E9455190E947D1781E08093B4049A
:1053900048E050E068E170E085EB94E00E946831FD
:1053A0001092B4048091B5048C7F11F40E947D1793
:1053B0000E946E118111B7C082E080935D0380E886
:1053C0008093C2040E940E2E6BE070E08FEB91E0A0
:1053D0000E94E8128823E9F180915D0365E070E0A6
:1053E00081FDA3C08AEB91E00E94E812882389F135
:1053F0006DE070E088EA91E00E94E812882349F1AC
:105400000E943308605A75418F4F9F4F609331045B
:10541000709332048093330490933404E5ECF4E009
:1054200080E092E0DF019C011D9221503040E1F7C5
:10543000F093CC06E093CB068FEF9FEF9093C404DC
:105440008093C30481E080933604809335041092E6
:105450005E030E946E11811102C00E94572F89E2E3
:1054600091E090933A0480933904A0E46A2EBAE064
:10547000CB2ED12CE12CF12C8091690400E112E1BA
:10548000853009F48FC00E94FE26E8E2AE2EE3E0EC
:10549000BE2EFFE18F2EF3E09F2ED401F5019191F6
:1054A0008D9123E0E033F20709F486C09817B9F331
:1054B0000E946E11382E10E022242394D4010D9105
:1054C0004D01F50141905F01401629F1712C5524E1
:1054D00053944026842D8521B1F03320A1F07F82A2
:1054E00018870E94CF1A9A8789872B8691E0802F90
:1054F000852109F490E09C874F81588569857A85DC
:105500008B850E9473267394550CF6E07F12E2CFD0
:10551000F501319700831F5F183081F60E94CE128B
:10552000772473944EC080E048CF85EB91E05CCF48
:1055300080916904843039F10E9455130E9412133E
:1055400010923D0488E190E00FB6F894A8958093FE
:1055500060000FBE6092600083B7817F846083BF6C
:1055600083B7816083BF7894889583B78E7F83BF2C
:105570000FB6F894A89580916000886180936000D0
:10558000109260000FBE80916804882359F00E9439
:10559000FE26EFE1F3E08191811120C393E0E73231
:1055A000F907C9F780916904853009F4C1CF0E94D9
:1055B000021B0E94931167CF98137ACF0E949728FD
:1055C000712C0E946E110E9455138091360488231D
:1055D00009F4BAC080915F03909160030E94C01AE1
:1055E000C29708F491C00E94CF1A909360038093F1
:1055F0005F0385EC94E09093CC068093CB060E94E9
:105600006E11882309F4C0C18BEE91E00E94BF0F98
:105610002091300330913103832F9927009751F166
:105620009C0188E0A90164E0569547956A95E1F7E9
:105630004115510511F08C5F9A01A90156954795C6
:10564000569547954115510511F08E5F9A01369593
:105650002795232B09F08F5F813009F455C18823EA
:1056600059F0823009F453C1833009F453C18AECF4
:1056700091E004C080E0D6CF83EE91E00E94FF0F5E
:1056800080913C030E940D06FC010196208120328E
:10569000D9F3CF010E946B1089EF91E00E94BF0FF8
:1056A00080913B030E940D06FC010196208120326F
:1056B000D9F3CF010E946B1085EF91E00E94BF0FDC
:1056C0002090390330903A0380913101909132015A
:1056D0002816390609F021C180913803803209F07B
:1056E0001CC122E333E0C9012F5F3F4FFC01408121
:1056F0004032C9F30E946B1083EF91E00E94BF0F0C
:10570000809133010E943F0F8091C3049091C404A3
:10571000892B09F076C1809135048823A9F00E9475
:1057200033080091310410913204209133043091F8
:105730003404601B710B820B930B6F3F7F4F8F4FB5
:105740009F4710F40E94121371100E942D1386E0DF
:10575000E9E6F3E0DE01119601900D928A95E1F7FA
:1057600010926B0310926C0310926D0310926E03F3
:105770008B819C81892B09F44AC0809167039091A9
:1057800068030E94C01A9C0190916203992309F456
:1057900040C225313105D8F19F3F19F09F5F9093AA
:1057A00062031B81112359F00E949E0B9FEF11167B
:1057B0000CF491E0899F802D112480936B031C8150
:1057C000112359F00E949E0B9FEF11160CF491E0EB
:1057D000899F802D112480936C0330916B033323B8
:1057E000B1F020916C03222391F045EB3403C0010A
:1057F0001124992309F4E2C190936B0345EB240330
:1058000090011124332309F4DDC130936C038D81A1
:105810009E81892B09F44AC08091650390916603AB
:105820000E94C01A9C0190916303992309F4ECC172
:1058300021353105D8F19F3F19F09F5F90936303A5
:105840001D81112359F00E947C0B9FEF11160CF45F
:1058500091E0899F802D112480936D031E81112377
:1058600059F00E947C0B9FEF11160CF491E0899F78
:10587000802D112480936E0330916D033323B1F09A
:1058800020916E03222391F045EB3403C0011124D3
:10589000992309F49BC190936D0345EB2403900178
:1058A0001124332309F496C130936E0346E050E08F
:1058B000BE016F5F7F4F89E693E00E945231892BD2
:1058C00061F480916B0390916C03892B90916D032F
:1058D000892B90916E03892B11F00E94DB1A86E0D0
:1058E000FE013196A9E6B3E001900D928A95E1F7A9
:1058F0000E94931190916103891709F4BDCD8093A3
:1059000061030E943308B8CD8DED91E0B7CE87EDED
:1059100091E0B4CE80ED91E0B1CE30923201209290
:10592000310180E280933803512C412C10923703CF
:10593000B2E38B2EB3E09B2E1DE2A12E13E0B12E1D
:105940008401C201B101A70196010E942131605D6D
:10595000603319F48016910631F0211431044104AA
:10596000510409F460E2D80114966C93C201B101AC
:10597000A70196010E94213119012A010150110944
:10598000A016B106F1F6ADCE8091CB069091CC0673
:10599000855C94409C013E5F21303240A0F020E0C5
:1059A00032E0281B390B4091C3045091C404EBEF43
:1059B000F1E0280F391F8217930740F05093C40479
:1059C0004093C304A1CE20E032E0EDCF6491DC012E
:1059D000AB53BB4F7C91671789F06C93BC01A5E07A
:1059E00076956795AA95E1F7A1E0B0E002C0AA0F0D
:1059F000BB1F6A95E2F7BD014A2B572B01963196E2
:105A0000DACF80913604882309F485CE80915E0335
:105A1000811181CE0E942D132091C3043091C404C2
:105A20002115310509F477CE80E0482E512C22242F
:105A30002394312C082E02C0220C331C0A94E2F766
:105A4000A10142235323452B11F48F5FEECF909198
:105A50005D0390FF99C0880F880F880F80933601EF
:105A600010923901895F8093370183E080933A0176
:105A700024E630E047E050E064E371E088E70E940C
:105A8000AE2E892B09F047CE95E0440C551C9A9513
:105A9000E1F780915D0380FF89C0EDE3F3E080E2F0
:105AA000DF011D928A95E9F7E1E9F1E0F88BEF87D4
:105AB0004DE851E087E0A82EAF85B8896D91B88B8D
:105AC000AF87FA018191AF01840D952D911D9C0145
:105AD0002B533B4F3E872D87E62FF0E0E35CFC4FD6
